:020000040000FA
:040000008031202803
:100008007E1480314E01961E0A280B2813288C1E58
:100018000E280F28132898317E2080311E28161E9E
:10002800162817281E280C1E1A281B281E28AD3132
:10003800D92580317E100900803122280B308400B8
:10004800AD30850042011200E4001200E500120004
:10005800E6001200E7001200E8001200E900410182
:10006800EF0120308400013085003E30AD31052598
:1000780080317E1040019931A02944304001A3000D
:10008800A730A200E030A1000030A00041014708DD
:100098004001A700410146084001A600410145086A
:1000A8004001A500410144084001A400A331A82350
:1000B8008031031C602861287E2842304101A3005A
:1000C8000630A2004330A100B030A0004708A700C6
:1000D8004608A6004508A5004408A4009C318124D0
:1000E800803141012308C3002208C2002108C10051
:1000F8002008C00044304001A300A730A200E0302F
:10010800A1000030A000410147084001A7004101BB
:1001180046084001A600410145084001A5004101EB
:1001280044084001A400A331A823803103189D2866
:100138009E28DB2844304001A300B330A200C03021
:10014800A1000030A000410147084001A70041017B
:1001580046084001A600410145084001A5004101AB
:1001680044084001A400A331A8238031031CBD2802
:10017800BE28DB2841304101A300FF30A200A13096
:10018800A1009630A0004708A7004608A600450829
:10019800A5004408A4009C31812480314101230832
:1001A800C3002208C2002108C1002008C000443052
:1001B8004001A300B330A200C030A1000030A0006D
:1001C800410147084001A700410146084001A60037
:1001D800410145084001A500410144084001A4002F
:1001E800A331A82380310318FA28FB283829443082
:1001F8004001A300BE30A2002030A1000030A000C2
:10020800410147084001A700410146084001A600F6
:10021800410145084001A500410144084001A400EE
:10022800A331A8238031031C1A291B2938294130FE
:100238004101A300F330A2004A30A1005830A000C9
:100248004708A7004608A6004508A5004408A400DA
:100258009C318124803141012308C3002208C20057
:100268002108C1002008C00044304001A300BE306E
:10027800A2002030A1000030A00041014708400141
:10028800A700410146084001A60041014508400178
:10029800A500410144084001A400A331A8238031EE
:1002A800031857295829952944304001A300C7301D
:1002B800A2000030A1000030A00041014708400121
:1002C800A700410146084001A60041014508400138
:1002D800A500410144084001A400A331A8238031AE
:1002E800031C77297829952941304101A300E7307B
:1002F800A2009030A100CB30A0004708A700460814
:10030800A6004508A5004408A4009C31812480313A
:1003180041012308C3002208C2002108C1002008A7
:10032800C00044304001A300C730A2000030A10043
:100338000030A000410147084001A70041014608DC
:100348004001A600410145084001A50041014408BB
:100358004001A400A331A82380310318B429B5298A
:10036800F22944304001A300CE30A200C030A100E1
:100378000030A000410147084001A700410146089C
:100388004001A600410145084001A500410144087B
:100398004001A400A331A8238031031CD429D52906
:1003A800F22941304101A300DC30A2007C30A100D9
:1003B800EE30A0004708A7004608A6004508A5009B
:1003C8004408A4009C318124803141012308C300E2
:1003D8002208C2002108C1002008C00044304001A2
:1003E800A300CE30A200C030A1000030A00041011F
:1003F80047084001A700410146084001A600410105
:1004080045084001A500410144084001A400A3316A
:10041800A82380310318112A122A4F2A4430400198
:10042800A300D530A2006030A1000030A000410137
:1004380047084001A700410146084001A6004101C4
:1004480045084001A500410144084001A400A3312A
:10045800A8238031031C312A322A4F2A4130410116
:10046800A300D230A2001030A100CB30A000470872
:10047800A7004608A6004508A5004408A4009C312A
:100488008124803141012308C3002208C2002108C9
:10049800C1002008C00044304001A300D530A200AC
:1004A8006030A1000030A000410147084001A700CA
:1004B800410146084001A600410145084001A50048
:1004C800410144084001A400A331A8238031031846
:1004D8006E2A6F2AAC2A44304001A300DB30A20008
:1004E8002030A1000030A000410147084001A700CA
:1004F800410146084001A600410145084001A50008
:10050800410144084001A400A331A8238031031C01
:100518008E2A8F2AAC2A41304101A300C830A2009C
:100528004930A1008630A0004708A7004608A60069
:100538004508A5004408A4009C318124803141016C
:100548002308C3002208C2002108C1002008C000F7
:1005580044304001A300DB30A2002030A10000306D
:10056800A000410147084001A70041014608400199
:10057800A600410145084001A50041014408400189
:10058800A400A331A82380310318CB2ACC2A092B35
:1005980044304001A300E030A2000030A100003048
:1005A800A000410147084001A70041014608400159
:1005B800A600410145084001A50041014408400149
:1005C800A400A331A8238031031CEB2AEC2A092BB1
:1005D80041304101A300BF30A2002230A1003430D5
:1005E800A0004708A7004608A6004508A50044083B
:1005F800A4009C318124803141012308C3002208D2
:10060800C2002108C1002008C00044304001A300F6
:10061800E030A2000030A1000030A00041014708EE
:100628004001A700410146084001A60041014508D4
:100638004001A500410144084001A400A331A823BA
:1006480080310318282B292B462B41304101A30068
:10065800BF30A2002230A1003430A0004708A70014
:100668004608A6004508A5004408A4009C3181243A
:10067800803141012308C3002208C2002108C100BB
:100688002008C00041304001BA00C830B90000302D
:10069800B8000030B700410143084001BE004101E5
:1006A80042084001BD00410141084001BC00410130
:1006B80040084001BB009031A920803140013A0830
:1006C8004101C300400139084101C2004001380816
:1006D8004101C100400137084101C00008303F0214
:1006E800013003193E02031C7A2B7B2B272F3E086F
:1006F800003E4001A900F83041013F3D4001AA00F9
:10070800AB01AC01003087313027803140012C0823
:100718004101C70040012B084101C60040012A08D9
:100728004101C500400129084101C400433040018E
:10073800A3006A30A2000030A1000030A0004101EF
:1007480047084001A700410146084001A6004101B1
:1007580045084001A500410144084001A400A33117
:10076800A8238031031CB92BBA2BD72B4230410167
:10077800A3003B30A2009630A100F030A00047084B
:10078800A7004608A6004508A5004408A4009C3117
:100798008124803141012308C3002208C2002108B6
:1007A800C1002008C00043304001A3006A30A20005
:1007B8000030A1000030A000410147084001A70017
:1007C800410146084001A600410145084001A50035
:1007D800410144084001A400A331A8238031031833
:1007E800F62BF72B342C43304001A300E630A2004F
:1007F8000030A1000030A000410147084001A700D7
:10080800410146084001A600410145084001A500F4
:10081800410144084001A400A331A8238031031CEE
:10082800162C172C342C42304101A3003830A2007A
:100838001C30A100AC30A0004708A7004608A6005D
:100848004508A5004408A4009C3181248031410159
:100858002308C3002208C2002108C1002008C000E4
:1008680043304001A300E630A2000030A100003070
:10087800A000410147084001A70041014608400186
:10088800A600410145084001A50041014408400176
:10089800A400A331A82380310318532C542C912C85
:1008A80044304001A3002930A2004030A1000030AC
:1008B800A000410147084001A70041014608400146
:1008C800A600410145084001A50041014408400136
:1008D800A400A331A8238031031C732C742C912C01
:1008E80042304101A3003430A2007830A100D53055
:1008F800A0004708A7004608A6004508A500440828
:10090800A4009C318124803141012308C3002208BE
:10091800C2002108C1002008C00044304001A300E3
:100928002930A2004030A1000030A0004101470852
:100938004001A700410146084001A60041014508C1
:100948004001A500410144084001A400A331A823A7
:1009580080310318B02CB12CEE2C44304001A30098
:100968005D30A2000030A1000030A000410147081E
:100978004001A700410146084001A6004101450881
:100988004001A500410144084001A400A331A82367
:100998008031031CD02CD12CEE2C42304101A30015
:1009A8003030A200CC30A100CD30A0004708A7000D
:1009B8004608A6004508A5004408A4009C318124E7
:1009C800803141012308C3002208C2002108C10068
:1009D8002008C00044304001A3005D30A200003070
:1009E800A1000030A000410147084001A7004101D3
:1009F80046084001A600410145084001A500410103
:100A080044084001A400A331A823803103180D2D08
:100A18000E2D4B2D44304001A3008730A2004030FA
:100A2800A1000030A000410147084001A700410192
:100A380046084001A600410145084001A5004101C2
:100A480044084001A400A331A8238031031C2D2DA4
:100A58002E2D4B2D42304101A3002D30A20026300F
:100A6800A1008130A0004708A7004608A600450855
:100A7800A5004408A4009C31812480314101230849
:100A8800C3002208C2002108C1002008C000443069
:100A98004001A3008730A2004030A1000030A00030
:100AA800410147084001A700410146084001A6004E
:100AB800410145084001A500410144084001A40046
:100AC800A331A823803103186A2D6B2DA82D44303B
:100AD8004001A3009D30A2002030A1000030A000FA
:100AE800410147084001A700410146084001A6000E
:100AF800410145084001A500410144084001A40006
:100B0800A331A8238031031C8A2D8B2DA82D4230B8
:100B18004101A3002730A200A230A1003430A00078
:100B28004708A7004608A6004508A5004408A400F1
:100B38009C318124803141012308C3002208C2006E
:100B48002108C1002008C00044304001A3009D30A6
:100B5800A2002030A1000030A00041014708400158
:100B6800A700410146084001A6004101450840018F
:100B7800A500410144084001A400A331A823803105
:100B88000318C72DC82D052E44304001A300B030EE
:100B9800A2004030A1000030A000410147084001F8
:100BA800A700410146084001A6004101450840014F
:100BB800A500410144084001A400A331A8238031C5
:100BC800031CE72DE82D052E42304101A3002130FA
:100BD800A2002130A1007C30A0004708A7004608E9
:100BE800A6004508A5004408A4009C318124803152
:100BF80041012308C3002208C2002108C1002008BF
:100C0800C00044304001A300B030A2004030A10031
:100C18000030A000410147084001A70041014608F3
:100C28004001A600410145084001A50041014408D2
:100C38004001A400A331A82380310318242E252EB7
:100C4800622E44304001A300C030A200A030A100B1
:100C58000030A000410147084001A70041014608B3
:100C68004001A600410145084001A5004101440892
:100C78004001A400A331A8238031031C442E452E33
:100C8800622E42304101A3001A30A2000E30A100AA
:100C98002230A0004708A7004608A6004508A5007E
:100CA8004408A4009C318124803141012308C300F9
:100CB8002208C2002108C1002008C00044304001B9
:100CC800A300C030A200A030A1000030A000410164
:100CD80047084001A700410146084001A60041011C
:100CE80045084001A500410144084001A400A33182
:100CF800A82380310318812E822EBF2E4430400154
:100D0800A300CE30A2006030A1000030A000410155
:100D180047084001A700410146084001A6004101DB
:100D280045084001A500410144084001A400A33141
:100D3800A8238031031CA12EA22EBF2E42304101D0
:100D4800A3001230A200B630A1009430A0004708DA
:100D5800A7004608A6004508A5004408A4009C3141
:100D68008124803141012308C3002208C2002108E0
:100D7800C1002008C00044304001A300CE30A200CA
:100D88006030A1000030A000410147084001A700E1
:100D9800410146084001A600410145084001A5005F
:100DA800410144084001A400A331A823803103185D
:100DB800DE2EDF2EFC2E42304101A3001230A200AD
:100DC800B630A1009430A0004708A7004608A60046
:100DD8004508A5004408A4009C31812480314101C4
:100DE8002308C3002208C2002108C1002008C0004F
:100DF800410143084001CE00410142084001CD00B5
:100E0800410141084001CC00410140084001CB00AC
:100E18004130D200C830D1000030D0000030CF00BF
:100E2800AE311726803140014E084101C300400110
:100E38004D084101C20040014C084101C100400178
:100E48004B084101C0004308BD004208BC004108EE
:100E5800BB004008BA0008004001B100310803197E
:100E6800362F372F4B2FAC1F3A2F3B2F4B2F2909EB
:100E7800B3002A09B4002B09B5002C09B600B30A3F
:100E88000319B40A0319B50A0319B60A532F2C0813
:100E9800B6002B08B5002A08B4002908B3002C08AE
:100EA8002B042A042904031D5A2F5B2F642F0030BA
:100EB800AC000030AB000030AA000030A900DC2FE5
:100EC8009630AD002D08B200742F0130AD002D080A
:100ED800B2070130B636B50CB40CB30C890B6E2FC3
:100EE800FE303605031D792F7A2F692F8E2F01309A
:100EF800AD002D08B2070130B3070030B43D003013
:100F0800B53D0030B63D0130B636B50CB40CB30C67
:100F1800890B882FFF303605031D932F942F7B2FC5
:100F28009E2F0130B2020130B335B40DB50DB60DA8
:100F3800890B982FB51BA12FA22FA82F02303202A0
:100F48000318A72FA82F952F3218AB2FAC2FB42F2B
:100F5800FF30B305FF30B4057F30B505FF30B60567
:100F68000310B20C3208AD00AE01AF01B001183069
:100F7800AD35AE0DAF0DB00D890BBC2F2D08B304E8
:100F88002E08B4042F08B5043008B6043108031934
:100F9800CE2FCF2FD42FAC1FD22FD32FD42FB617AD
:100FA8003608AC003508AB003408AA003308A9009D
:100FB8000800AD313D258731AD3146258731AD314A
:100FC8004F258731AD3158258731AD3161258731BE
:100FD800AD316A2587317A012A102612211199111B
:100FE8009B101A1224109910181118109911271112
:060FF8002D111B1508007D
:10100000623051018D008F019101023093009001F7
:101010009201940108004101EB01EC01EA01E801B1
:10102000E90102303E3E860001308700403F40012A
:10103000A000413FA100423FA200433FA300003077
:10104000A7000030A6000030A5000030A400A031A9
:10105000E1208831031C2D282E28F6288B31E72328
:10106000883141014F084201CC0041014E08420144
:10107000CB0041014D084201CA0041014C08420128
:10108000C9004C084001A30042014B084001A200E6
:1010900042014A084001A100420149084001A00064
:1010A0004130A700A030A6000030A5000030A40009
:1010B000A331A8238831031C5E285F2833294230DE
:1010C0004001A3002830A2000030A1000030A000A1
:1010D00042014C084001A70042014B084001A60014
:1010E00042014A084001A500420149084001A4000C
:1010F000A331A8238831031C7E287F28332942018D
:101100004C084001BE0042014B084001BD004201B5
:101110004A084001BC00420149084001BB00C130FF
:10112000BA00A030B9000030B8000030B7009031EC
:10113000A920883140013A08DA003908D900380876
:10114000D8003708D7004130D6002030D500003015
:10115000D4000030D3009231E1228831400156089A
:101160004101BD00400155084101BC004001540847
:101170004101BB00400153084101BA00A2319E2247
:10118000883141013A08E40064084201BF000A3096
:10119000A031052088314101E40064084201BE000D
:1011A00001304101E40064084201BE0720303E06E0
:1011B000031DDB28DC28DE28BE01BE0A3F084101F2
:1011C000E40064084001A00042013E080A3EAE313E
:1011D000F026883142013E084101E40064084001E4
:1011E000A0000A30AE31F0268831332942013F0891
:1011F0004101E400E50164084001A20041016508E5
:101200004001A3000A30A0000030A100A2313E221C
:10121000883140012008143E4101E60000304001C1
:10122000213D4101E70066084001A900410167082E
:101230004001AA00890D893B8909AB00AC0001304F
:1012400087313027883140012C084201CC00400111
:101250002B084201CB0040012A084201CA0040018C
:1012600029084201C9000430A03105208831013A23
:10127000031D3B293C29922942014C084101A3004E
:1012800042014B084101A20042014A084101A1006C
:10129000420149084101A000A03158208831410194
:1012A00023084201CC00410122084201CB00410148
:1012B00021084201CA00410120084201C9004C082E
:1012C0004001DA0042014B084001D90042014A08BE
:1012D0004001D800420149084001D7004130D60002
:1012E0002030D5000030D4000030D3009231E1220C
:1012F0008831400156084101BD00400155084101B7
:10130000BC00400154084101BB00400153084101A9
:10131000BA00A2319E22883141013B08EE003A0812
:10132000ED00502A42014C084001DA0042014B080E
:101330004001D90042014A084001D8004201490851
:101340004001D7004130D6002030D5000030D40015
:101350000030D3009231E12288314001560841012A
:10136000BD00400155084101BC0040015408410145
:10137000BB00400153084101BA00A2319E228831CE
:1013800041013B08EE003A08ED00502A6B08031DAE
:10139000CA29CB29E1290A304001A0000030A10070
:1013A00041016E084001A30041016D084001A20007
:1013B000AF3152278831400120084101E400640820
:1013C000E9006B03031DE529E629FC290A304001E9
:1013D000A0000030A10041016E084001A3004101BE
:1013E0006D084001A200AF3152278831400120082A
:1013F0004101E4006408E80002306B06031D012A85
:10140000022A182A0A304001A0000030A100410140
:101410006E084001A30041016D084001A200AF31F8
:1014200052278831400120084101E4006408EA00A5
:1014300003306B06031D1D2A1E2A342A0A30400180
:10144000A0000030A10041016E084001A30041014D
:101450006D084001A200AF315227883140012008B9
:101460004101E4006408EC000A304001A0000030B3
:10147000A10041016E084001A30041016D08400137
:10148000A200AF31C3278831400121084101EE009D
:10149000400120084101ED000130E4006408EB0741
:1014A0006D086E04031D552A562AC62942014C08B0
:1014B0004001A30042014B084001A20042014A083A
:1014C0004001A100420149084001A0000030A700EE
:1014D0000030A6000030A5000030A400A331A823EE
:1014E0008831031C742A752A842A41016C08031D63
:1014F0007A2A7B2A7F2AAD313D258831862A6C08DD
:10150000A53151258831862A7A01A71441016C083A
:10151000031D8B2A8C2A952A6A08031D902A912A7A
:10152000952AAD3146258831992A6A08A531E025EA
:10153000883141016808A4313324883141016908A8
:10154000A431C22488317A0118150230A031052057
:101550008831013A031DAD2AAE2AB12A7A019915C4
:10156000B32A7A0121150430A03105208831003AD0
:10157000031DBB2ABC2ABF2A7A012A14C12A7A0178
:1015800026160630A03105208831003A031DC92AED
:10159000CA2ACC2A7A0124147A0199140A3040010B
:1015A000A9000030AA0042013E084101E400E50123
:1015B00064084001AB00410165084001AC00A13165
:1015C0003021883140012908A6316F2688310A3040
:1015D0004001A9000030AA000A30A0000030A1009C
:1015E00042013E084101E400E50164084001A20017
:1015F000410165084001A300A2313E22883140012B
:101600002108AC002008AB00A13130218831400115
:10161000290890311A20883142304001A30014304B
:10162000A2000030A1000030A00042014C0840019F
:10163000A70042014B084001A60042014A084001B0
:10164000A500420149084001A400A331A823883124
:10165000031C2B2B2C2B322B0030AE31CA268831A9
:101660007A019B1442304001A3001430A2000030E4
:10167000A1000030A00042014C084001A700420137
:101680004B084001A60042014A084001A500420162
:1016900049084001A400A331A82388310318512B25
:1016A000522B762B42304001A3001630A2000030AE
:1016B000A1000030A00042014C084001A7004201F7
:1016C0004B084001A60042014A084001A500420122
:1016D00049084001A400A331A8238831031C712BC1
:1016E000722B762B0130AE31CA2688314230400150
:1016F000A3001630A2000030A1000030A00042017B
:101700004C084001A70042014B084001A6004201DD
:101710004A084001A500420149084001A400A33144
:10172000A82388310318952B962B9A2B0230AE31C3
:10173000CA268831AD31A9258831003A0319A12B79
:10174000A22B9A2BAA30983100208831AD31A925DF
:101750008831003A0319AD2BAE2BA62B41016C0842
:10176000983100208831AD31A9258831003A03191C
:10177000BA2BBB2BB32B41016A089831002088316A
:10178000AD31A9258831003A0319C72BC82BC02BCE
:1017900041016808983100208831AD31A925883190
:1017A000003A0319D42BD52BCD2B41016908983170
:1017B00000208831AD31A9258831003A0319E12B89
:1017C000E22BDA2BCC3098310020883108009E3192
:1017D00035268B3141013D08D3003C08D2003B083F
:1017E000D1003A08D000953138258B3141013D08B0
:1017F000E3003C08E2003B08E1003A08E00063082F
:101800004001A300410162084001A20041016108BA
:101810004001A100410160084001A0004130A70043
:10182000C830A6000030A5000030A400A331A823D2
:101830008B31031C1C2C1D2CEF2E3D304001D6009B
:101840002730D500BB30D4003030D300C130BA00CF
:10185000C830B9000030B8000030B700410163085B
:101860004001BE00410162084001BD004101610824
:101870004001BC00410160084001BB009031A9203B
:101880008B3140013A08DA003908D9003808D8000D
:101890003708D7009231E1228B31400156084101CF
:1018A000DB00400155084101DA00400154084101C4
:1018B000D900400153084101D80063084001A3004A
:1018C000410162084001A200410161084001A100FC
:1018D000410160084001A0004130A700D830A600B7
:1018E0000030A5000030A400A331A8238B31031CD5
:1018F0007A2C7B2CDA2C410163084001A3004101C2
:1019000062084001A200410161084001A1004101BB
:1019100060084001A0004130A700E030A600003080
:10192000A5000030A400A331A8238B310318992C03
:101930009A2CDA2C3D304001D6003C30D5003630B0
:10194000D4001130D300C130BA00C830B900003023
:10195000B8000030B700410163084001BE004101FA
:1019600062084001BD00410161084001BC00410125
:1019700060084001BB009031A9208B3140013A083A
:10198000DA003908D9003808D8003708D700923172
:10199000E1228B31400156084101DB00400155082E
:1019A0004101DA00400154084101D90040015308C7
:1019B0004101D800410163084001A30041016208D0
:1019C0004001A200410161084001A10041016008FD
:1019D0004001A0004130A700E030A6000030A50083
:1019E0000030A400A331A8238B31031CF82CF92C60
:1019F000582D410163084001A300410162084001E4
:101A0000A200410161084001A100410160084001BC
:101A1000A0004130A700E830A6000030A50000304B
:101A2000A400A331A8238B310318172D182D582D8E
:101A30003D304001D6004030D5004E30D400A530B6
:101A4000D300C130BA00C830B9000030B80000304F
:101A5000B700410163084001BE0041016208400136
:101A6000BD00410161084001BC0041016008400126
:101A7000BB009031A9208B3140013A08DA003908C7
:101A8000D9003808D8003708D7009231E1228B31CD
:101A9000400156084101DB00400155084101DA00D0
:101AA000400154084101D900400153084101D800C8
:101AB000410163084001A300410162084001A20006
:101AC000410161084001A100410160084001A000FE
:101AD0004130A700E830A6000030A5000030A40087
:101AE000A331A8238B31031C762D772DD62D4101F0
:101AF00063084001A300410162084001A2004101C6
:101B000061084001A100410160084001A00041308E
:101B1000A700F030A6000030A5000030A400A331DB
:101B2000A8238B310318952D962DD62D3D304001DD
:101B3000D6004430D5006730D4003830D300C130EF
:101B4000BA00C830B9000030B8000030B700410119
:101B500063084001BE00410162084001BD0041012F
:101B600061084001BC00410160084001BB009031A8
:101B7000A9208B3140013A08DA003908D900380829
:101B8000D8003708D7009231E1228B314001560846
:101B90004101DB00400155084101DA0040015408D1
:101BA0004101D900400153084101D80041016308B7
:101BB0004001A300410162084001A2004101610807
:101BC0004001A100410160084001A0004130A70090
:101BD000F030A6000030A5000030A400A331A823F7
:101BE0008B31031CF42DF52D352E3D304001D600F0
:101BF0004830D5007F30D400CC30D300C130BA009B
:101C0000C830B9000030B8000030B70041016308A7
:101C10004001BE00410162084001BD004101610870
:101C20004001BC00410160084001BB009031A92087
:101C30008B3140013A08DA003908D9003808D80059
:101C40003708D7009231E1228B314001560841011B
:101C5000DB00400155084101DA0040015408410110
:101C6000D900400153084101D80041015B084001FF
:101C7000CE0041015A084001CD0041015908400100
:101C8000CC00410158084001CB003F30D200593010
:101C9000D100DB30D0002330CF00AE3117268B319E
:101CA00040014E08D6004D08D5004C08D4004B0822
:101CB000D300C130BA00C830B9000030B8000030DD
:101CC000B700410163084001BE00410162084001C4
:101CD000BD00410161084001BC00410160084001B4
:101CE000BB009031A9208B3140013A08DA00390855
:101CF000D9003808D8003708D7009231E1228B315B
:101D0000400156084101DF00400155084101DE0055
:101D1000400154084101DD00400153084101DC004D
:101D20003F304001D6008030D5000030D400003074
:101D3000D30041015F084001DA0041015E08400123
:101D4000D90041015D084001D80041015C08400113
:101D5000D7009231E1228B31400156084101DF006A
:101D6000400155084101DE00400154084101DD00F9
:101D7000400153084101DC005F084001BA00410105
:101D80005E084001B90041015D084001B800410111
:101D90005C084001B700410153084001BE00410109
:101DA00052084001BD00410151084001BC00410101
:101DB00050084001BB009031A9208B3140013A0806
:101DC0004101D700400139084101D60040013808DF
:101DD0004101D500400137084101D400E72F3D30D3
:101DE0004001D6003C30D5003630D4001130D3004D
:101DF000410163084001CE00410162084001CD006D
:101E0000410161084001CC00410160084001CB0064
:101E10004130D200C830D1000030D0000030CF00B7
:101E2000AE3117268B3140014E08DA004D08D9003B
:101E30004C08D8004B08D7009231E1228B31400189
:101E400056084101DB00400155084101DA0040011C
:101E500054084101D900400153084101D8006308EA
:101E60004001CE00410162084001CD0041016108FE
:101E70004001CC00410160084001CB004130D2005C
:101E8000C830D1000030D0000030CF00AE3117266E
:101E90008B3140014E08D6004D08D5004C08D400C7
:101EA0004B08D30041015B084001CE0041015A08B4
:101EB0004001CD00410159084001CC0041015808C2
:101EC0004001CB003F30D2005730D1008D30D000E0
:101ED0005030CF00AE3117268B3140014E08DA006A
:101EE0004D08D9004C08D8004B08D7009231E122A8
:101EF0008B31400156084101DF0040015508410186
:101F0000DE00400154084101DD0040015308410159
:101F1000DC003F304001D6008030D5000030D400D6
:101F20000030D30041015F084001DA0041015E0842
:101F30004001D90041015D084001D80041015C0821
:101F40004001D7009231E1228B3140015608410116
:101F5000DF00400155084101DE0040015408410105
:101F6000DD00400153084101DC005F084001CE0064
:101F700041015E084001CD0041015D084001CC00F7
:101F800041015C084001CB00410153084001D200EF
:101F9000410152084001D100410151084001D000E7
:101FA000410150084001CF00AE3117268B3140016E
:101FB0004E084101D70040014D084101D6004001C3
:101FC0004C084101D50040014B084101D40057089D
:101FD0004201CC00410156084201CB0041015508A5
:101FE0004201CA00410154084201C9004101570899
:101FF000CF005608CE005508CD005408CC0008008C
:102002007A018C1308004001A300230841019F00BC
:1020120042019117111311141118102811280D28BB
:1020220041011E084001A10041011D084001A0001C
:1020320008004001A20080287A012B1425141F14E5
:1020420019149F14AB14A510A8287A012B1025147B
:102052001F1419109F10AB10A510A8287A012B1479
:1020620025141F1019149F14AB10A514A8287A0167
:102072002B1425141F1419149F10AB10A514A82893
:102082007A012B1025141F1419109F10AB14A514DC
:10209200A8287A012B1425101F1419149F10AB14B1
:1020A200A514A8287A012B1425101F1419149F14A3
:1020B200AB14A514A8287A012B1425141F14191087
:1020C2009F10AB10A510A8287A012B1425141F14F9
:1020D20019149F14AB14A514A8287A012B142514E3
:1020E2001F1419149F10AB14A514A8287A012B10E1
:1020F20025101F1019109F10AB10A510A828220838
:10210200A000A1012108003A031988287728200895
:10211200003A03191D28013A03192628033A031924
:102122002F28013A03193828073A03194128013A9E
:1021320003194A28033A03195328013A03195C2860
:102142000F3A03196528013A03196E287728080007
:1021520040013A088039BF003F08C7003A35BF0046
:102162003F08C900B91FB628B728B828491449083A
:102172000319BC28BD28CD28490A031DC128C2283D
:10218200CA280030BA000030B9000030B800003070
:10219200B700B917BA01D5280030BA000030B9002B
:1021A2000030B8000030B7003E088039BF003F0859
:1021B200C800480847060319DF28E028E128471726
:1021C2003E35BF003F08C800BD1FE828E928EA28BD
:1021D200481448080319EE28EF28FF28480A031D6F
:1021E200F328F428FC280030BE000030BD00003087
:1021F200BC000030BB00BD17BE0107290030BE0085
:102202000030BD000030BC000030BB00490848026D
:1022120003180C290D295129471F102911291529A5
:102222008030BF003F08C7064908BF003F08CA0008
:102232004808BF003F08C9004A08BF003F08C8005D
:102242003708BF003F08CA003B08BF003F08B7007D
:102252004A08BF003F08BB003808BF003F08CA0059
:102262003C08BF003F08B8004A08BF003F08BC0056
:102272003908BF003F08CA003D08BF003F08B90047
:102282004A08BF003F08BD003A08BF003F08CA0025
:102292003E08BF003F08BA004A08BF003F08BE0020
:1022A200CA014808BF00C0014008C20049083F02F5
:1022B200C100031CC2034208803AC30080304302BB
:1022C200031D65291A304102031C68296929A129C5
:1022D20040013A08390438043704031D712973296F
:1022E200013074290030BF003F08CA000030BA0034
:1022F2000030B9000030B8000030B7004808BF0015
:102302003F08C900A8294A1C872988298E294A36EC
:102312000138BF003F08CA0090290310CA0C371CBD
:10232200932994299529CA170130BF00BA37B90CED
:10233200B80CB70CBF0B97290130BF003F08C90783
:10234200400148084902031CA729A8298429471BE0
:10235200AB29AC29E4294908031DB029B129BA29BE
:102362000030BA000030B9000030B8000030B700C9
:10237200E02A3B08B7073C08B83D3D08B93D3E0896
:10238200BA3D3A1CC529C629702A4A1CC929CA293C
:10239200D0294A360138BF003F08CA00D2290310AB
:1023A200CA0C371CD529D629D729CA170130BF0034
:1023B200BA37B90CB80CB70CBF0BD9290130BF0022
:1023C2003F08C907702A3A08803ABF003E08803A9F
:1023D2003F02031DF6293D083902031DF6293C0878
:1023E2003802031DF6293B0837020318F929FA2996
:1023F200322AFF30BF00FF30C000FF30C100FF3083
:10240200C20037083B02C30038083C3BC40039080D
:102412003D3BC5003A083E3BC6004308BF0744089F
:10242200C03D4508C13D4608C23D4208BA004108C8
:10243200B9004008B8003F08B7008030BF003F082D
:10244200C706CA09CA0A4A08031D282A292A3A2A9B
:102452000130B7070030B83D0030B93D0030BA3D19
:102462003A2A3B08B7023C08B83B3D08B93B3E0854
:10247200BA3B3A08390438043704031D412A422A78
:102482006C2A4A08031D462A472A6C2A0030BA00E1
:102492000030B9000030B8000030B700E02A013047
:1024A200B735B80DB90DBA0D890B512ACA1F5A2A70
:1024B2005B2A5C2A37144A1C5F2A602A632A0314A7
:1024C200CA0D652A0310CA0D49080319692A6A2A26
:1024D2006C2A0130C902B91F6F2A702A502AC8011A
:1024E200CA1F742A752A832A4A087F3903197A2A4D
:1024F2007B2A7E2AC801C80A832A371C812A822A9B
:10250200832A7B2A48080319872A882AB52A013098
:10251200B7070030B83D0030B93D0030BA3D3A1C33
:10252200932A942AB52A3708BF003808C000390810
:10253200C1003A08C2000130C300C237C10CC00C4E
:10254200BF0CC30B9E2A4208BA004108B9004008DA
:10255200B8003F08B700490A0319B02AB12AB52AC0
:102562000130BF003F08C907490A0319B92ABA2A2C
:10257200BF2A4908031DBE2ABF2ACD2A0030BA004D
:102582000030B9000030B8000030B7004908031D20
:10259200CB2ACC2ACD2AC701491CD02AD12AD32A38
:1025A200B917D72A7F30BF003F08B9054936BF00A7
:1025B2003F08BA00C71FDE2ADF2AE02ABA1708003E
:1025C200400156088039DB005B08E0005635DB002D
:1025D2005B08E600D51FEE2AEF2AF02A6614660889
:1025E2000319F42AF52A042B660A031DF92AFA2A8A
:1025F200022B0030D6000030D5000030D40000306D
:10260200D300D5170C2B0030D6000030D500003097
:10261200D4000030D3005A088039DB005B08E006A2
:102622005A35DB005B08E500D91F182B192B1A2B32
:102632006514650803191E2B1F2B2E2B650A031D1B
:10264200232B242B2C2B0030DA000030D900003051
:10265200D8000030D700D917362B0030DA0000300E
:10266200D9000030D8000030D700650803193A2B92
:102672003B2B402B6608031D3F2B402B492B003080
:10268200D6000030D5000030D4000030D300372D02
:102692005308DB005B08A0005908AE31372692319F
:1026A20040012108EC002008EB006B08DB00DC0194
:1026B200DD01DE015E08E4005D08E3005C08E20083
:1026C2005B08E1006C08DB00DC01DD01DE015E0875
:1026D200EA005D08E9005C08E8005B08E7005408CE
:1026E200DB005B08A0005808AE313726923140016A
:1026F2002108EC002008EB006B08DB00DC01DD01A7
:10270200DE015B08E1075C08E23D5D08E33D5E082F
:10271200E43D6C08DB00DC01DD01DE015B08E7075C
:102722005C08E83D5D08E93D5E08EA3D5508DB00CE
:102732005B08A0005708AE313726923140012108CC
:10274200EC002008EB006B08DB00DC01DD01DE01A0
:102752005B08E1075C08E23D5D08E33D5E08E43D9D
:102762006C08DB00DC01DD01DE015B08E7075C08C9
:10277200E83D5D08E93D5E08EA3D0830E135E20DDD
:10278200E30DE40D890BBF2B5408DB005B08A000AE
:102792005708AE313726923140012108EC0020085B
:1027A200EB006B08E1076C08E23D0030E33DE43DDD
:1027B2005308DB005B08A0005808AE31372692317F
:1027C20040012108EC002008EB006B08E1076C08CF
:1027D200E23D0030E33DE43D0830E135E20DE30D3A
:1027E200E40D890BEE2B5308DB005B08A0005708B1
:1027F200AE313726923140012108EC002008EB006F
:102802006B08E1076C08E23D0030E33DE43D54080B
:10281200DB005B08A0005908AE3137269231400137
:102822002108EC002008EB006B08E7076C08E83D84
:102832000030E93DEA3D5508DB005B08A00058087E
:10284200AE313726923140012108EC002008EB001E
:102852006B08E7076C08E83D0030E93DEA3D5508A2
:10286200DB005B08A0005908AE31372692314001E7
:102872002108EC002008EB006B08DB006C08DC0090
:10288200DD01DE010830DB35DC0DDD0DDE0D890BEF
:10289200442C5B08E7075C08E83D5D08E93D5E08FB
:1028A200EA3D6108DB006208DC006308DD006408C1
:1028B200DE001830DE36DD0CDC0CDB0C890B5B2C09
:1028C2005B08E7075C08E83D5D08E93D5E08EA3D14
:1028D2000830E135E20DE30DE40D890B6A2C660840
:1028E2006507DB00DC01DC0D5B08823EEB00FF309C
:1028F2005C3DEC00932C0130E735E80DE90DEA0D63
:10290200890B7D2CE41F862C872C882C67140130C0
:10291200E135E20DE30DE40D890B892CFF30EB0765
:10292200FF30EC3DE91F962C972C7C2CE501E41F2F
:102932009B2C9C2CB82CFF306105DB00FF3062051C
:10294200DC00FF306305DD007F306405DE005E08D9
:102952005D045C045B040319AF2CB02CB32CE501BD
:10296200E50AB82C671CB62CB72CB82CB02C65081D
:102972000319BC2CBD2CE52C0130E7070030E83DE3
:102982000030E93D0030EA3D6A1CC82CC92CE52C18
:102992006708DB006808DC006908DD006A08DE0001
:1029A2000130DF00DE37DD0CDC0CDB0CDF0BD32C5F
:1029B2005E08EA005D08E9005C08E8005B08E700E1
:1029C2000130EB070030EC3D6C08803ADB008030D0
:1029D2005B02031DEE2CFF306B02031CF12CF22C68
:1029E200FC2C7F304001EA008030E9000030E80032
:1029F2000030E7002B2D40016C08803ADB0080306C
:102A02005B02031D062D01306B020318092D0A2DEE
:102A1200152D00304001EA000030E9000030E800E6
:102A22000030E700E0012B2D40016B08DB005B0862
:102A3200E600FF30E705FF30E8057F30E9050030AA
:102A4200EA05661C252D262D272DE9176636DB00A3
:102A52005B08EA006008DB005B08EA046A08D6004B
:102A62006908D5006808D4006708D300080001305F
:102A7200AE31A5269531400135084101BF00400124
:102A820034084101BE0008303F02013003193E0202
:102A920003184C2D4E2D8331722B00304001ED0076
:102AA2000830EE0041013E0840016D02A9004101DB
:102AB2003F0840016E3BAA00AB01AC0100308731F8
:102AC2003027953140012C084101C70040012B08F5
:102AD2004101C60040012A084101C5004001290800
:102AE2004101C40043304001A3006030A200003025
:102AF200A1000030A000410147084001A7004101A8
:102B020046084001A600410145084001A5004101D7
:102B120044084001A400A331A8239531031C922D3F
:102B2200932DB02D42304101A3003330A200063074
:102B3200A1008E30A0004708A7004608A60045085D
:102B4200A5004408A4009C31812495314101230849
:102B5200C3002208C2002108C1002008C00043307F
:102B62004001A3006030A2000030A1000030A000AC
:102B7200410147084001A700410146084001A60063
:102B8200410145084001A500410144084001A4005B
:102B9200A331A82395310318CF2DD02D0D2E43300C
:102BA2004001A300D930A2008030A1000030A00073
:102BB200410147084001A700410146084001A60023
:102BC200410145084001A500410144084001A4001B
:102BD200A331A8239531031CEF2DF02D0D2E423089
:102BE2004101A3002D30A200D230A100F230A0009A
:102BF2004708A7004608A6004508A5004408A40007
:102C02009C318124953141012308C3002208C2006E
:102C12002108C1002008C00043304001A300D93080
:102C2200A2008030A1000030A0004101470840010D
:102C3200A700410146084001A600410145084001A4
:102C4200A500410144084001A400A331A823953105
:102C520003182C2E2D2E6A2E44304001A3001D3065
:102C6200A2004030A1000030A0004101470840010D
:102C7200A700410146084001A60041014508400164
:102C8200A500410144084001A400A331A8239531C5
:102C9200031C4C2E4D2E6A2E42304101A3002730D8
:102CA200A200DC30A1000F30A0004708A7004608B0
:102CB200A6004508A5004408A4009C318124953152
:102CC20041012308C3002208C2002108C1002008D4
:102CD200C00044304001A3001D30A2004030A100DA
:102CE2000030A000410147084001A7004101460809
:102CF2004001A600410145084001A50041014408E8
:102D02004001A400A331A82395310318892E8A2EED
:102D1200C72E44304001A3004930A200C030A100B8
:102D22000030A000410147084001A70041014608C8
:102D32004001A600410145084001A50041014408A7
:102D42004001A400A331A8239531031CA92EAA2E69
:102D5200C72E42304101A3002130A2006230A100FF
:102D6200EB30A0004708A7004608A6004508A500CA
:102D72004408A4009C318124953141012308C300F9
:102D82002208C2002108C1002008C00044304001CE
:102D9200A3004930A200C030A1000030A0004101D0
:102DA20047084001A700410146084001A600410131
:102DB20045084001A500410144084001A400A33197
:102DC200A82395310318E62EE72E242F4430400124
:102DD200A3007130A2008030A1000030A0004101A8
:102DE20047084001A700410146084001A6004101F1
:102DF20045084001A500410144084001A400A33157
:102E0200A8239531031C062F072F242F423041019E
:102E1200A3001A30A200A030A100C530A0004708CC
:102E2200A7004608A6004508A5004408A4009C3156
:102E32008124953141012308C3002208C2002108E0
:102E4200C1002008C00044304001A3007130A2003C
:102E52008030A1000030A000410147084001A700D6
:102E6200410146084001A600410145084001A50074
:102E7200410144084001A400A331A823953103185D
:102E8200432F442F812F44304001A3008A30A200F7
:102E92008030A1000030A000410147084001A70096
:102EA200410146084001A600410145084001A50034
:102EB200410144084001A400A331A8239531031C19
:102EC200632F642F812F42304101A3001330A200EF
:102ED200C330A100B030A0004708A7004608A600F2
:102EE2004508A5004408A4009C3181249531410184
:102EF2002308C3002208C2002108C1002008C00024
:102F020044304001A3008A30A2008030A10000308A
:102F1200A000410147084001A700410146084001C5
:102F2200A600410145084001A500410144084001B5
:102F3200A400A331A82395310318A02FA12FDE2FBF
:102F420044304001A3009D30A2008030A100003037
:102F5200A000410147084001A70041014608400185
:102F6200A600410145084001A50041014408400175
:102F7200A400A331A8239531031CC02FC12FDE2F3B
:102F820042304101A3000F30A200F830A1003830D6
:102F9200A0004708A7004608A6004508A500440867
:102FA200A4009C318124953141012308C3002208E9
:102FB200C2002108C1002008C00044304001A30023
:102FC2009D30A2008030A1000030A00041014708DE
:102FD2004001A700410146084001A6004101450801
:102FE2004001A500410144084001A400A331A823E7
:102FF20095310318FE2F8031412880317E2840010F
:10300200A0004E010F1E06280728022840012008B2
:1030120042019A0008004001A50067287A012B1599
:1030220025111F1119119F15AB15A5152B1025146C
:103032001F1419109F10AB10A5107D287A012B15B3
:1030420025111F1119119F15AB15A5152B14251448
:103052001F1019149F14AB10A514A7142616A41739
:1030620024157D287A012B1525111F1119119F1581
:10307200AB15A5152B1425141F1419149F10AB1092
:10308200A514A7142616A41724157D287A012B153A
:1030920025111F1119119F15AB15A5152B102514FC
:1030A2001F1419109F10AB14A514AD313D25983192
:1030B200AD31462598310030A431332498310030A7
:1030C200A431C22498317A0118157D282508A3005D
:1030D200A4012408003A03196F287D282308003A26
:1030E20003190F28013A03191F28033A0319332839
:1030F200013A031947287D2808004E018C1242012B
:1031020063084B019D00420162084B019C000130A3
:103112004201D3070030D43D1430F0000030F100FA
:103122005408F3005308F200AF311E27983170089B
:103132007104031D9D289E28A1284201DD01DD0A9C
:1031420042013D03031DA628A728C0280130B70766
:103152000030B83D023037063804031DB128B228CA
:10316200B428400195110330420137063804031D8B
:10317200BB28BC28C028400195154201BD01023080
:103182003D06031DC528C628F3280130B7070030C5
:10319200B83D023037063804031DD028D128D32881
:1031A200400195110330420137063804031DDA2825
:1031B200DB28DD284001951504304201370638042A
:1031C200031DE428E528E728400195110530420156
:1031D20037063804031DEE28EF28F3284001951521
:1031E2004201BD014230F3001630F2000030F1001E
:1031F2000030F0004C08F7004B08F6004A08F500D2
:103202004908F400A3311E239831031809290A2919
:10321200342942013D08031D0F29102934290130A8
:10322200B7070030B83D0A30F0000030F10038082E
:10323200F3003708F200AF311E279831700871048D
:10324200031D242925293229003042013802333056
:103252000319370203182E292F293229400195110B
:10326200342940019515033042015305FC0000301A
:103272005405FD007C087D04031D40294129432992
:10328200DC014529DC01DC0A3230F0000030F100BB
:103292005408F3005308F200AF311E27983170082A
:1032A2007104031D552956295B290230FC007C0854
:1032B2004201BC0042013A03031D602961297029C1
:1032C2000130FC007C08B50733303506031D6A293E
:1032D2006B2970290230FC007C08BA00B501390361
:1032E200031D7429752984290130FC007C08B40768
:1032F20015303406031D7E297F2984290230FC0003
:103302007C08B900B4013B03031D88298929982947
:103312000130FC007C08B607FB303606031D9229FB
:10332200932998290230FC007C08BB00B60163088F
:103332004B019D00420162084B019C0008004201C2
:10334200EF01AD31F825993140011B160030AE3145
:10335200CA269931AF318727993102304201ED00F7
:103362004530EC00A930890BB429EC0BB429ED0BE4
:10337200B429003202307A019600A031022099313C
:103382004201BB01BC01DA01D901D8010030C300FE
:103392000030C2000030C1000030C0000230EC003A
:1033A2006C08E9000030A031052099315A3A03191E
:1033B200DB29DC29D42A5A304201EC006C08400196
:1033C200A0000030AE31F02699314001A001023058
:1033D200AE31F02699314001A0010430AE31F02621
:1033E20099314001A0010630AE31F02699314001F9
:1033F200A0010A30AE31F02699314001A001A00AA5
:103402000830AE31F0269931D42A5A03031D0A2A14
:103412000B2A112ABA01BA0AB501BB01BB0AB601CD
:1034220040018C1E152A162A212A42013A03031D45
:103432001B2A1C2A212A0230EC006C08E900BA017E
:1034420040018C1A252A262A302A023042013A06E5
:10345200031D2C2A2D2A302ABA01E901E90A420168
:103462005803031D352A362A392AB401B901B90A8B
:103472003903031D3D2A3E2A672A40018E1C422A37
:10348200432A672A01304201EC006C08BE073E085D
:103492000A3EA031052099314201EC006C08BF00C0
:1034A2003F30C3008030C2000030C1000030C00095
:1034B20088310B20993100304201C3000030C20034
:1034C2000030C1000030C000B901D8010230420111
:1034D2003906031D6D2A6E2A7A2A40018E1C722A31
:1034E200732A7A2A03304201EC006C08E900B90120
:1034F200D801023042013B06031D802A812A882A14
:103502000330AE31CA2699319031012099314201FE
:103512006808031D8D2A8E2A962A5C08031D922AAA
:10352200932A962A8731DD279931A131DF219931FA
:10353200D42A8731DD2799310130AD317325993194
:103542009A31ED229931D42AAD3102259931873150
:10355200DD279931420168080319B02AB12AB42A39
:1035620088310B20993142016808031DB92ABA2A11
:10357200C22A5C08031DBE2ABF2AC22A8731DD2760
:103582009931A131DF2199314201DA010230AD31A5
:10359200732599314201E901D42A5D03031DD22A20
:1035A200D32AD42ADD0142016908EC00ED016D083D
:1035B200003A0319DD2AD42A6C08003A0319062AB4
:1035C200013A03199A2A033A0319A52A013A03195F
:1035D200CE2AD42A803120284001EF014201B601CF
:1035E200BB01BB0AD8010230A03105209A31420149
:1035F200EA006A08C4000430A03105209A31420171
:10360200EA006A08C5000630A03105209A3142015D
:10361200EA006A08C600C801003098310C209A31CD
:1036220042015A03031D162B172B162CBA01BA0A94
:10363200B501BB01BB0AB601162C0030A031052032
:103642009A31003A0319262B272B332B42015C03B4
:10365200031D2C2B2D2B302B7A0199153E2B7A0131
:1036620099113E2B42015C03031D382B392B3C2B55
:103672007A0121153E2B7A01211142014803031DD3
:10368200432B442B2E2C0030A03105209A31003AD6
:1036920003194C2B4D2B542B4001A0010230AE31AB
:1036A200F0269A315A2B4001A0010230AE31F026A9
:1036B2009A310130AD3173259A314201C8012E2C65
:1036C2000030A03105209A31003A0319692B6A2B88
:1036D200762B42015C03031D6F2B702B732B7A0137
:1036E2002A14812B7A012A10812B42015C03031DCB
:1036F2007B2B7C2B7F2B7A012616812B7A012612BB
:1037020042014803031D862B872B2E2C0030A0314B
:1037120005209A31003A03198F2B902B982B4001E8
:10372200A001A00A0430AE31F0269A319E2B40014E
:10373200A0010430AE31F0269A310130AD3173254B
:103742009A315E2B0630A03105209A31003A031DD2
:10375200AB2BAC2BB82B42015C03031DB12BB22B5C
:10376200B52B7A012414BA2B7A012410BA2B7A01D0
:10377200241042014803031DBF2BC02B2E2C063000
:10378200A03105209A31013A031DC82BC92BD02B39
:103792004001A0010630AE31F0269A31D72B40010C
:1037A200A001A00A0630AE31F0269A310130AD31C7
:1037B20073259A315E2B3F30C3008030C200003047
:1037C200C1000030C0000A30A03105209A31420108
:1037D200EA006A08BE003E080A3EA03105209A317E
:1037E2004201EA006A08BF0088310B209A3100309A
:1037F2004201C3000030C2000030C1000030C000EE
:1038020040018F1B052C062C0A2C01304201BE02FE
:10381200E42B42015803031D0F2C102C012C013004
:10382200EA006A08BE07D801E42B40016F08420192
:10383200EA00EB016B08003A0319202C2E2C6A08CF
:10384200003A03191E2B013A0319612B033A03199B
:10385200A32B013A0319DC2B2E2C3A03031D322C25
:10386200332C582C40018C1E372C382C582C01300C
:103872004201EA006A084001EF070130AD317325C9
:103882009A31043040016F06031D482C492C4D2CFF
:103892004201E901DA01802C8731DD279A314001AA
:1038A2006F0898310C209A314201BA01DA010230D4
:1038B20042013A06031D5E2C5F2C692C40018C1AD2
:1038C200632C642C692C4201E901BA01DA01802CD3
:1038D20042015803031D6E2C6F2C722CC801C80ABA
:1038E200D80102303B06031D772C782C112B0330B4
:1038F200AE31CA269A31903101209A31112B08003B
:10390200410127088039A8002808B1002735A800FE
:103912002808B800A61F8E2C8F2C902C381438083B
:103922000319942C952CA52C380A031D992C9A2C3A
:10393200A22C0030A7000030A6000030A500003005
:10394200A400A617A701AD2C0030A7000030A600E6
:103952000030A5000030A40023088039A800280800
:10396200B1062335A8002808B900A21FB92CBA2C29
:10397200BB2C391439080319BF2CC02CD02C390A9E
:10398200031DC42CC52CCD2C0030A3000030A20096
:103992000030A1000030A000A217A301D82C0030F3
:1039A200A3000030A2000030A1000030A0002308D4
:1039B200220421042004031DDF2CE02CF92C00300A
:1039C200A7000030A6000030A5000030A40080301F
:1039D200A6047F30A7043108A8002808A7042708F6
:1039E200A3002608A2002508A1002408A000342E66
:1039F2003808031DFD2CFE2C072D0030A3000030DB
:103A0200A2000030A1000030A000342E3808A80027
:103A1200A9012908AB0039082802AA00031CAB033C
:103A22002A087F3EB20000302B3DB3002708B000C9
:103A32002608AF002508AE002408AD000030A7001C
:103A42000030A6000030A5000030A4000030B7000E
:103A52000030B6000030B5000030B400B9016F2D5F
:103A620039080319352D362D502D0130AD35AE0DE7
:103A7200AF0DB00D890B372D0130A435A50DA60D64
:103A8200A70D890B3E2DB71F472D482D492D241414
:103A92000130B435B50DB60DB70D890B4A2D23088B
:103AA2003002031D5E2D22082F02031D5E2D210808
:103AB2002E02031D5E2D20082D02031C612D622D96
:103AC2006B2D37172008AD022108AE3B2208AF3B11
:103AD2002308B03B0130A8002808B9071A30390280
:103AE200031C742D752D312D30082F042E042D0446
:103AF20003197C2D7D2D962D3414962D0130A4357D
:103B0200A50DA60DA70D890B802DB71F892D8A2D16
:103B12008B2D24140130B435B50DB60DB70D890BBC
:103B22008C2DFF30B207FF30B33DA61F992D9A2D81
:103B32007F2DB901B71F9E2D9F2DBB2DFF30340560
:103B4200A800FF303505A900FF303605AA007F30F6
:103B52003705AB002B082A04290428040319B22DC7
:103B6200B32DB62DB901B90ABB2D241CB92DBA2D1E
:103B7200BB2DB32D39080319BF2DC02DE82D0130FF
:103B8200A4070030A53D0030A63D0030A73D271C0C
:103B9200CB2DCC2DE82D2408A8002508A900260845
:103BA200AA002708AB000130AC00AB37AA0CA90C65
:103BB200A80CAC0BD62D2B08A7002A08A6002908B2
:103BC200A5002808A4000130B2070030B33D330835
:103BD200803AA80080302802031DF12DFF30320206
:103BE200031CF42DF52D022EFF304101B2000030EE
:103BF200B3000030A7000030A6000030A50000305E
:103C0200A40041013308803AA80080302802031D35
:103C12000C2E0130320203180F2E102E1C2E4101E1
:103C2200B201B3010030A7000030A6000030A500A9
:103C32000030A400B10141013208A8002808B800F0
:103C4200381C242E252E272EA6172B2E7F30A800B7
:103C52002808A6053836A8002808A7003108A800B9
:103C62002808A704F02C08000030AE31A5269E31AA
:103C7200400135084101CB00400134084101CA002E
:103C820005304B02653003194A02031C492E4A2EA5
:103C9200072F4A089B3ECA00FA304B3DCB004A0828
:103CA2004001A90041014B084001AA00AB01AC014F
:103CB2000030873130279E3140012C08DA002B0872
:103CC200D9002A08D8002908D7003930D600E930AF
:103CD200D5004E30D400E430D3009231E1229E313F
:103CE20040015608BE005508BD005408BC005308E8
:103CF200BB003F30BA007B30B9002230B800D1306F
:103D0200B7009031A9209E3140013A084101A30039
:103D1200400139084101A200400138084101A100D7
:103D2200400137084101A0004A084001A9004101B1
:103D32004B084001AA00AB01AC01003087313027AB
:103D42009E3140012C084101A70040012B0841018E
:103D5200A60040012A084101A500400129084101AD
:103D6200A4009C3181249E3141012308C500220810
:103D7200C4002108C3002008C2004130A300203043
:103D8200A2000030A1000030A0004508A7004408AE
:103D9200A6004308A5004208A4009C3181249E315C
:103DA20041012308C1002208C0002108BF002008E9
:103DB200BE0042304001BA001430B9000030B800F1
:103DC2000030B700410141084001BE0041014008F6
:103DD2004001BD0041013F084001BC0041013E08D5
:103DE2004001BB009031A9209E3140013A084101B7
:103DF200C900400139084101C800400138084101A9
:103E0200C700400137084101C600CB2F6530400191
:103E1200ED000530EE0041014A0840016D0241010A
:103E2200CA004B0840016E3B4101CB004A084001E9
:103E3200A90041014B084001AA00AB01AC010030CE
:103E4200873130279E3140012C08DA002B08D90037
:103E52002A08D8002908D7003A30D6003630D500D3
:103E6200B630D400E130D3009231E1229E314001DC
:103E72005608BE005508BD005408BC005308BB00DC
:103E82003F30BA007C30B900D230B8000B30B700F6
:103E92009031A9209E3140013A084101A30040011E
:103EA20039084101A200400138084101A100400146
:103EB20037084101A0004A084001A90041014B080E
:103EC2004001AA00AB01AC010030873130279E319E
:103ED20040012C084101A70040012B084101A60026
:103EE20040012A084101A500400129084101A4001E
:103EF2009C3181249E3141012308C5002208C4005F
:103F02002108C3002008C2004130A3002030A200D3
:103F12000030A1000030A0004508A7004408A60018
:103F22004308A5004208A4009C3181249E3141012E
:103F32002308C1002208C0002108BF002008BE00DB
:103F420041084001CE00410140084001CD0041013D
:103F52003F084001CC0041013E084001CB00423005
:103F6200D2001430D1000030D0000030CF00AE318A
:103F720017269E3140014E084101C90040014D08FB
:103F82004101C80040014C084101C70040014B08F3
:103F92004101C60040304001BA005330B90033300D
:103FA200B8003330B700410149084001BE00410169
:103FB20048084001BD00410147084001BC004101E1
:103FC20046084001BB009031A9209E3140013A08C9
:103FD2004101C900400139084101C80040013808C7
:103FE2004101C700400137084101C6004908BD0030
:0E3FF2004808BC004708BB004608BA0008009B
:104004004B019E1708004001A000640050019E1857
:104014000C280E28400107281E17400120085001D3
:104024009A0070309B001E141C0808007A018C133F
:1040340005308D0096015A30970080309400853009
:104044009500980199019A019B019C019E019F0191
:10405400A001A101A201A401A501A601A701A80133
:10406400AA01AB01AC01AD01AE01B001B101B201D5
:10407400B301B401B601B701B801B901BA01BC0179
:10408400BD01BE01BF01C001C201C301C401C5011C
:10409400C601D7308E001F308F00183090000730D3
:1040A40091009201930184308C0008004230400159
:1040B400BA000030B9000030B8000030B7003F301B
:1040C400D600E630D5006630D4006630D300410116
:1040D40023084001DA00410122084001D9004101CE
:1040E40021084001D800410120084001D700923145
:1040F400E122A03140015608BE005508BD00540815
:10410400BC005308BB009031A920A03140013A08FB
:104114004101A300400139084101A20040013808CF
:104124004101A100400137084101A00008004001FD
:10413400AC00AD01AE011430AA002A08B300B101ED
:10414400B201BB2804304001AA003D30890BA828E5
:10415400AA0BA828003240012C0890310420A03179
:1041640040012008AD072108AE3D0130B107003001
:10417400B23D3208803AAA0080302A02031DC428C6
:1041840033083102031CC728C828A4284001330877
:10419400AA00AB012A08A0002B08A1002E08A30046
:1041A4002D08A200AF31C327A03140012108B0007F
:1041B4002008AF003008A9002F08A800080000302C
:1041C40040012005A80000302105A9008030220507
:1041D400AA007F302305AB002B082A0429042804F5
:1041E400031DF528F628FE280030A3000030A200A5
:1041F4000030A1000030A00000302405A8000030E9
:104204002505A90080302605AA007F302705AB00CC
:104214002B082A0429042804031D112912291A2908
:104224000030A7000030A6000030A5000030A40034
:1042340027082306031D282926082206031D2829EA
:1042440025082106031D28292408200603192B29E3
:104254002C292E2903102F29031408004001AF0133
:10426400AC1F352936293D29AB09AC09AB0A031922
:10427400AC0AAF01AF0AAA1F402941294629A9095E
:10428400AA09A90A0319AA0A29082A0403194B2905
:104294004C297529AE01AE0A58290130A935AA0D59
:1042A400890B50290130AD002D08AE07AA1F5B29E8
:1042B4005C294F292A082C02031D622929082B0294
:1042C400031C652966296A292908AB022A08AC3B24
:1042D4000130AA36A90C890B6B290130AE02031DEB
:1042E400742975295C292F08031979297A297F29CA
:1042F400AB09AC09AB0A0319AC0A2C08AA002B08B9
:10430400A900080040019C0120309B0098019D01F8
:10431400990101309A00073096003F309700083029
:10432400920080309300C2309400803095007E016A
:10433400D901CE018030C3000730E4003F307C0156
:10434400D0007E01B801DA017C01D1017E01E501D2
:10435400C401B901CF01E6017C01D2017E01BA0199
:10436400C5010130D0002030DB00DF30BB00FF305E
:10437400C600DF30D100FF30DC000330E700FF303F
:104384007C01D300FF307E01BC00FF30C700DF306A
:10439400D200FF30DD000B30E800FF307C01D40098
:1043A4007E01BE16D4144E0116160D307E019E00F9
:1043B4000C30AE000B30AB000800A631FE26A13154
:1043C4004B3042016802031CE829E929EE297A01ED
:1043D4001814991527152D15283042016802031C5D
:1043E400F429F529002A4B3068020318FA29FB291D
:1043F400002A7A011814991527152D110A30420143
:104404006802031C062A072A122A283068020318A5
:104414000C2A0D2A122A7A011814991527112D1124
:10442400420168080319172A182A232A0A30680245
:1044340003181D2A1E2A232A7A01181499112711F8
:104444002D1142016808031D282A292A3D2A5C03EC
:10445400031D2D2A2E2A342A7A01181499112711A2
:104464002D11392A7A011810991127112D11A71429
:104474002616A417241508004001A601A11F432AEB
:10448400442A4B2AA009A109A00A0319A10AA601DA
:10449400A60AA31F4E2A4F2A582AA209A309A20A30
:1044A4000319A30A0130A4002408A606A701A80141
:1044B4002008210403195F2A602A8F2AA501A50A6E
:1044C4006C2A0130A035A10D890B642A0130A400A7
:1044D4002408A507A11F6F2A702A632A0130A73573
:1044E400A80D890B712A21082302031D7B2A2008A9
:1044F4002202031C7E2A7F2A842A2008A202210881
:10450400A33B27140130A136A00C890B852A013066
:10451400A502031D8E2A8F2A702A26080319932ABE
:10452400942A992AA709A809A70A0319A80A2808F6
:10453400A1002708A0000800031041013C0D3D0D17
:10454400BE003E084001EE006E08031DAA2AAB2AF5
:10455400B52A00304101BD000030BC000030BB0072
:104564000030BA001D2B41013A08BE003B08BF00D1
:104574003C08C0003D08C1001F30C136C00CBF0C50
:10458400BE0C890BBF2A3E08C20042084001ED0060
:104594004101BC17FF30BA05FF30BB05FF30BC0535
:1045A4000030BD0596304001EE02EE1FDA2ADB2A08
:1045B400F52A6E08803A973E0318E12AE22AE32A94
:1045C400AB2A01304101BD36BC0CBB0CBA0C890BC3
:1045D400E42A0130BE003E084001EE07031DF32A21
:1045E400F42AE32A0C2B20306E02031CFA2AFB2A3D
:1045F400072BAB2A01304101BA35BB0DBC0DBD0DF3
:10460400890BFD2A01304001EE026E08031D0B2BBD
:104614000C2BFC2A6D080319102B112B1D2B4101A7
:10462400BA09BB09BC09BD09BA0A0319BB0A0319B3
:10463400BC0A0319BD0A080000307005F8000030F8
:104644007105F90080307205FA007F307305FB00B4
:104654007B087A0479047804031D312B322B3A2B1E
:104664000030F3000030F2000030F1000030F000C0
:1046740000307405F80000307505F90080307605C7
:10468400FA007F307705FB007B087A04790478040C
:10469400031D4D2B4E2B562B0030F7000030F60037
:1046A4000030F5000030F400F31F592B5A2B722B05
:1046B4000030F8000030F9000030FA008030FB00D0
:1046C4007008F8027108F93B7208FA3B7308FB3B67
:1046D4007B08F3007A08F2007908F1007808F0000A
:1046E400F71F752B762B8E2B0030F8000030F90065
:1046F4000030FA008030FB007408F8027508F93BBA
:104704007608FA3B7708FB3B7B08F7007A08F6004B
:104714007908F5007808F4008030F3068030F70655
:1047240077087302031DA02B76087202031DA02BC9
:1047340075087102031DA02B740870020318A32BC3
:10474400A42BA62B0310A72B031408000030400150
:104754002005A80000302105A90080302205AA0008
:104764007F302305AB002B082A0429042804031DE9
:10477400BC2BBD2BC52B0030A3000030A2000030A1
:10478400A1000030A00000302405A8000030250559
:10479400A90080302605AA007F302705AB002B082E
:1047A4002A0429042804031DD82BD92BE12B00301B
:1047B400A7000030A6000030A5000030A400A31F0D
:1047C400E42BE52BFD2B0030A8000030A9000030BD
:1047D400AA008030AB002008A8022108A93B2208C7
:1047E400AA3B2308AB3B2B08A3002A08A2002908F4
:1047F400A1002808A000A71F002C012C192C0030B0
:10480400A8000030A9000030AA008030AB002408C2
:10481400A8022508A93B2608AA3B2708AB3B2B087E
:10482400A7002A08A6002908A5002808A4008030AB
:10483400A3068030A70627082302031D2B2C260875
:104844002202031D2B2C25082102031D2B2C2408D6
:10485400200203182E2C2F2C312C0310322C03147D
:1048640008004001A200992C7A012A1724171E1768
:1048740018179E17AA17A413C12C7A012A132417F8
:104884001E1718139E13AA13A413C12C7A012A17F6
:1048940024171E1318179E17AA13A417C12C7A01E4
:1048A4002A1724171E1718179E13AA13A417C12C0E
:1048B4007A012A1324171E1718139E13AA17A41774
:1048C400C12C7A012A1724131E1718179E13AA172E
:1048D400A417C12C7A012A1724131E1718179E1720
:1048E400AA17A417C12C7A012A1724171E17181304
:1048F4009E13AA13A413C12C7A012A1724171E1776
:1049040018179E17AA17A417C12C7A012A1724175F
:104914001E1718179E13AA17A417C12C7A012A135D
:1049240024131E1318139E13AA13A413C12C2208B4
:10493400A000A1012108003A0319A12C902C200801
:10494400003A0319362C013A03193F2C033A031990
:10495400482C013A0319512C073A03195A2C013AED
:104964000319632C033A03196C2C013A0319752CAF
:104974000F3A03197E2C013A0319872C902C080056
:104984004001A200282D7A01AA14A4149E1498149C
:104994001E152A152411502D7A01AA10A4149E1450
:1049A40098101E112A112411502D7A01AA14A4144E
:1049B4009E1098141E152A112415502D7A01AA143C
:1049C400A4149E1498141E112A112415502D7A0132
:1049D400AA10A4149E1498101E112A152415502DE3
:1049E4007A01AA14A4109E1498141E112A152415D1
:1049F400502D7A01AA14A4109E1498141E152A1579
:104A04002415502D7A01AA14A4149E1498101E1172
:104A14002A112411502D7A01AA14A4149E14981456
:104A24001E152A152415502D7A01AA14A4149E14B7
:104A340098141E112A152415502D7A01AA10A410B9
:104A44009E1098101E112A112411502D2208A00026
:104A5400A1012108003A0319302D1F2D2008003A26
:104A64000319C52C013A0319CE2C033A0319D72C88
:104A7400013A0319E02C073A0319E92C013A031906
:104A8400F22C033A0319FB2C013A0319042D0F3AB3
:104A940003190D2D013A0319162D1F2D080040018D
:104AA400A200B72D7A012D14271421141B14A1146C
:104AB400AD14A710DF2D7A012D10271421141B101B
:104AC400A110AD10A710DF2D7A012D142714211089
:104AD4001B14A114AD10A714DF2D7A012D14271473
:104AE40021141B14A110AD10A714DF2D7A012D1071
:104AF400271421141B10A110AD14A714DF2D7A0163
:104B04002D14271021141B14A110AD14A714DF2D8C
:104B14007A012D14271021141B14A114AD14A71409
:104B2400DF2D7A012D14271421141B10A110AD10B0
:104B3400A710DF2D7A012D14271421141B14A1149E
:104B4400AD14A714DF2D7A012D14271421141B147E
:104B5400A110AD14A714DF2D7A012D1027102110F8
:104B64001B10A110AD10A710DF2D2208A000A10179
:104B74002108003A0319BF2DAE2D2008003A03196D
:104B8400542D013A03195D2D033A0319662D013A98
:104B940003196F2D073A0319782D013A0319812D52
:104BA400033A03198A2D013A0319932D0F3A031975
:104BB4009C2D013A0319A52DAE2D08004001A20039
:104BC400462E7A01AC15A615A0159A1520162C169A
:104BD40026126E2E7A01AC11A615A0159A11201278
:104BE4002C1226126E2E7A01AC15A615A0119A1558
:104BF40020162C1226166E2E7A01AC15A615A015B9
:104C04009A1520122C1226166E2E7A01AC11A615B6
:104C1400A0159A1120122C1626166E2E7A01AC15A8
:104C2400A611A0159A1520122C1626166E2E7A019E
:104C3400AC15A611A0159A1520162C1626166E2E44
:104C44007A01AC15A615A0159A1120122C12261261
:104C54006E2E7A01AC15A615A0159A1520162C16E1
:104C640026166E2E7A01AC15A615A0159A152012DB
:104C74002C1626166E2E7A01AC11A611A0119A11CB
:104C840020122C1226126E2E2208A000A101210847
:104C9400003A03194E2E3D2E2008003A0319E32D45
:104CA400013A0319EC2D033A0319F52D013A0319BE
:104CB400FE2D073A0319072E013A0319102E033A61
:104CC4000319192E013A0319222E0F3A03192B2E18
:104CD400013A0319342E3D2E08004001A200D52EBE
:104CE4007A012B1525151F1519159F15AB15A5113F
:104CF400FD2E7A012B1125151F1519119F11AB11CA
:104D0400A511FD2E7A012B1525151F1119159F15B7
:104D1400AB11A515FD2E7A012B1525151F15191597
:104D24009F11AB11A515FD2E7A012B1125151F1509
:104D340019119F11AB15A515FD2E7A012B152511FF
:104D44001F1519159F11AB15A515FD2E7A012B15ED
:104D540025111F1519159F15AB15A515FD2E7A01E3
:104D64002B1525151F1519119F11AB11A511FD2E1A
:104D74007A012B1525151F1519159F15AB15A515AA
:104D8400FD2E7A012B1525151F1519159F11AB152D
:104D9400A515FD2E7A012B1125111F1119119F1133
:104DA400AB11A511FD2E2208A000A1012108003A93
:104DB4000319DD2ECC2E2008003A0319722E013A75
:104DC40003197B2E033A0319842E013A03198D2EFD
:104DD400073A0319962E013A03199F2E033A031931
:104DE400A82E013A0319B12E0F3A0319BA2E013A2B
:104DF4000319C32ECC2E0800223090310420A63192
:104E0400400120084101C300400121084101C400C0
:104E1400C501C6013A304001D6001F30D500AE307E
:104E2400D4001430D300410146084001AC004101D4
:104E340045084001AB00410144084001AA0041017A
:104E440043084001A900013087313027A6314001D1
:104E54002C08DA002B08D9002A08D8002908D70022
:104E64009231E122A631400156084101CA004001B5
:104E740055084101C900400154084101C8004001DE
:104E840053084101C70044304001D6007A30D500B0
:104E94000030D4000030D30041014A084001DA0058
:104EA400410149084001D900410148084001D800A6
:104EB400410147084001D7009231E122A631400167
:104EC40056084101CA00400155084101C90040018A
:104ED40054084101C800400153084101C70044304F
:104EE4004001A300A530A2000030A1000030A000C2
:104EF40041014A084001A700410149084001A600B8
:104F0400410148084001A500410147084001A400AF
:104F1400A331A823A6310318902F912FFD2F41010F
:104F24004A084001BE00410149084001BD00410159
:104F340048084001BC00410147084001BB00C4309F
:104F4400BA00A530B9000030B8000030B700903185
:104F5400A920A63140013A084101A70040013908BF
:104F64004101A600400138084101A500400137086D
:104F74004101A4004430A3001630A2000030A10077
:104F84000030A0009C318124A63141012308400156
:104F9400DA00410122084001D90041012108400101
:104FA400D800410120084001D7004230D600C83063
:104FB400D5000030D4000030D3009231E122A63174
:104FC400400156084101BD00400155084101BC00A3
:104FD400400154084101BB00400153084101BA009B
:104FE400A2319E22A63141013A084001EF006F0828
:0C4FF4004201E800FF2F4201E801080024
:105A04007A018C170800640080010131890B062D8E
:105A140000348034073428340534503402344F01C0
:105A240096019701980199019A019B010800400190
:105A340021084301A100400120084301A0000800FF
:105A4400400121084201DF00400120084201DE003C
:105A54000800400121084301A3004001200843013C
:105A6400A2000800400121084201E1004001200891
:105A74004201E00008007A012D10271021101B10AC
:105A8400A110AD10A71008007A01AC11A611A01145
:105A94009A1120122C12261208007A012A132413B8
:105AA4001E1318139E13AA13A41308007A01AA1034
:105AB400A4109E1098101E112A11241108007A01B6
:105AC4002B1125111F1119119F11AB11A5110800DC
:105AD4007A012B1025101F1019109F10AB10A51060
:105AE40008004001A1004201B701B80140012108AA
:105AF400A00020084201BD000800803046019A0041
:105B04002E3099004030980044011E083F39403837
:105B14009E0008000130450190008F0191015C3026
:105B24008D008C014E019010803045018E000800DC
:105B3400400195158030460196002E309500403086
:105B4400940044011E08CF3910389E00080040011B
:105B5400A0014E010F1EAF2DB02DB82D42019E1E87
:105B6400B42DB52DB82D4001A001A00A4001200894
:105B7400080080304B019F00F3309D00E4309C000E
:105B84001D084201E3004B011C084201E2004E01E2
:105B94008C128B1796167E304001A0001830A1009D
:105BA400AD313425AD3190304B019E0008007E01AB
:105BB400D51CDD2DDE2DF72DD51040018E18E32DDB
:105BC400E42DE82D4201D801D80AEB2D4201D7017A
:105BD400D70A40018C1AEF2DF02DF42D4201DA0181
:105BE400DA0AF72D4201D901D90A0800AD3111258D
:105BF400AD31A1318421AD3188310020AD31AE31D8
:105C04005B26AD31AD317F25AD31AD319A25AD3156
:105C1400AD318C25AD31AD31BB25AD31AE318026F2
:105C2400AD31A0311820AD31080080304001CE06DE
:105C34005208BA005108B9005008B8004F08B7001C
:105C44004E08BE004D08BD004C08BC004B08BB000C
:105C54009031A920AE3140013A08CE003908CD0078
:105C64003808CC003708CB0008004001A800A40184
:105C7400A5012008A200A3012208A6002308A7006A
:105C8400281C452E462E4A2E2608A4072708A53D83
:105C94000130A635A70D890B4B2E0310A80C28083C
:105CA400031D552E562E422E2508A1002408A000BF
:105CB4000800643041018C0080308D00FA308E0081
:105CC40080308F0092019301980104309A009F0163
:105CD400143042018C008D018E018F01900101303E
:105CE40092002030930050309400950102309600C9
:105CF400970101309800D430910008000830420127
:105D04009F0080309D0024309E0019309B009C0130
:105D140000304001A0000030A100AD312225AE3199
:105D240000304001A0000030A100AD312B25AE3180
:105D340000304001A0000030A100AD311925AE3182
:105D44004201DB0108004001B70011304001B600F8
:105D54003A30890BAB2EB60BAB2E0000400137084E
:105D6400031DB52EB62EC02E2030A0319920AE31A1
:105D740040012908B5002808B400C92E2130A031FB
:105D84009920AE3140012908B5002808B400080064
:105D94004001A200D92E9B121A14EF2E9B121A1046
:105DA400EF2E9B161A10EF2E9B161A14EF2E2208B4
:105DB400A000A1012108003A0319E12EEF2E2008CA
:105DC400003A0319CD2E013A0319D02E033A0319D0
:105DD400D32E013A0319D62EEF2E08004001A1005C
:105DE40050019E18F62EF72EF22E1E1740012108A0
:105DF40050019A0070309B009D0140012008500121
:105E04009C00400103108B1F082F092F0A2F031435
:105E14008B1350011E1555309F00AA309F009E140D
:105E24009E18152F162F122F1E114001031C1B2F15
:105E34001C2F1D2F8B170800700871040319232FC2
:105E4400242F4D2FF501F50A302F0130F035F10DD7
:105E5400890B282F0130F4007408F507F11F332F44
:105E6400342F272F71087302031D3A2F7008720212
:105E7400031C3D2F3E2F422F7008F2027108F33BA2
:105E84000130F136F00C890B432F0130F502031D6C
:105E94004C2F4D2F342F7308F1007208F0000800C6
:105EA4004001200821040319582F592F822FA501DE
:105EB400A50A652F0130A035A10D890B5D2F013096
:105EC400A4002408A507A11F682F692F5C2F2108AF
:105ED4002302031D6F2F20082202031C722F732F2D
:105EE400772F2008A2022108A33B0130A136A00C81
:105EF400890B782F0130A502031D812F822F692F72
:105F04002308A1002208A00008007A012A142616FA
:105F1400211518159915241499149B141A1618147C
:105F2400991527152D1508304001A3002308A40056
:105F34002408A5315125AF3140012408A531E025BD
:105F4400AF3140012408A4313324AF314001240887
:105F5400A431C224AF3140012408A6316F26AF31E9
:105F64004001240890311A20AF3101304001A300D0
:105F74002308A40709302402031CC12FC22F9A2F1F
:105F840008004001A501A601200821040319CB2F14
:105F9400CC2FFB2FA701A70AD82F0130A035A10DC4
:105FA400890BD02F0130A4002408A707A11FDB2FE1
:105FB400DC2FCF2F0130A535A60D890BDD2F21084D
:105FC4002302031DE72F20082202031CEA2FEB2FD4
:105FD400F02F2008A2022108A33B25140130A1368A
:105FE400A00C890BF12F0130A702031DFA2FFB2F00
:0C5FF400DC2F2608A1002508A0000800F2
:020000040001F9
:0A000E00E83BFF3F9F3FFF3FFF3F2D
:00000001FF
